{
  "contractName": "Quiz",
  "abi": [
    {
      "inputs": [],
      "stateMutability": "nonpayable",
      "type": "constructor"
    },
    {
      "inputs": [],
      "name": "manager",
      "outputs": [
        {
          "internalType": "address",
          "name": "",
          "type": "address"
        }
      ],
      "stateMutability": "view",
      "type": "function",
      "constant": true
    },
    {
      "inputs": [
        {
          "internalType": "uint256",
          "name": "",
          "type": "uint256"
        }
      ],
      "name": "quizWinnersHistory",
      "outputs": [
        {
          "internalType": "address",
          "name": "",
          "type": "address"
        }
      ],
      "stateMutability": "view",
      "type": "function",
      "constant": true
    },
    {
      "stateMutability": "payable",
      "type": "receive",
      "payable": true
    },
    {
      "inputs": [],
      "name": "contractBal",
      "outputs": [
        {
          "internalType": "uint256",
          "name": "",
          "type": "uint256"
        }
      ],
      "stateMutability": "view",
      "type": "function",
      "constant": true
    },
    {
      "inputs": [],
      "name": "fundContract",
      "outputs": [
        {
          "internalType": "string",
          "name": "",
          "type": "string"
        }
      ],
      "stateMutability": "payable",
      "type": "function",
      "payable": true
    },
    {
      "inputs": [
        {
          "internalType": "uint256",
          "name": "index",
          "type": "uint256"
        }
      ],
      "name": "fundingHistory",
      "outputs": [
        {
          "internalType": "uint256",
          "name": "",
          "type": "uint256"
        }
      ],
      "stateMutability": "view",
      "type": "function",
      "constant": true
    },
    {
      "inputs": [],
      "name": "quizMe",
      "outputs": [
        {
          "internalType": "string",
          "name": "_question",
          "type": "string"
        }
      ],
      "stateMutability": "view",
      "type": "function",
      "constant": true
    },
    {
      "inputs": [
        {
          "internalType": "int16",
          "name": "_answer",
          "type": "int16"
        }
      ],
      "name": "submitAnswer",
      "outputs": [],
      "stateMutability": "nonpayable",
      "type": "function"
    },
    {
      "inputs": [],
      "name": "viewScore",
      "outputs": [
        {
          "internalType": "uint8",
          "name": "",
          "type": "uint8"
        }
      ],
      "stateMutability": "view",
      "type": "function",
      "constant": true
    }
  ],
  "bytecode": "0x60806040523480156200001157600080fd5b50336000806101000a81548173ffffffffffffffffffffffffffffffffffffffff021916908373ffffffffffffffffffffffffffffffffffffffff160217905550600260405180604001604052806040518060400160405280601781526020017f3132312044697669646564206279203131206973205f5f0000000000000000008152508152602001600b60010b81525090806001815401808255809150506001900390600052602060002090600202016000909190919091506000820151816000019081620000e291906200099d565b5060208201518160010160006101000a81548161ffff021916908360010b61ffff16021790555050506002604051806040016040528060405180606001604052806026815260200162001e3f602691398152602001600b60010b815250908060018154018082558091505060019003906000526020600020906002020160009091909190915060008201518160000190816200017f91906200099d565b5060208201518160010160006101000a81548161ffff021916908360010b61ffff16021790555050506002604051806040016040528060405180606001604052806025815260200162001e65602591398152602001600a60010b815250908060018154018082558091505060019003906000526020600020906002020160009091909190915060008201518160000190816200021c91906200099d565b5060208201518160010160006101000a81548161ffff021916908360010b61ffff1602179055505050600260405180604001604052806040518060400160405280601f81526020017f486f77204d616e79204d6f6e746873204d616b6520612043656e747572793f0081525081526020016104b060010b81525090806001815401808255809150506001900390600052602060002090600202016000909190919091506000820151816000019081620002d691906200099d565b5060208201518160010160006101000a81548161ffff021916908360010b61ffff16021790555050506002604051806040016040528060405180606001604052806026815260200162001e8a602691398152602001600a60010b815250908060018154018082558091505060019003906000526020600020906002020160009091909190915060008201518160000190816200037391906200099d565b5060208201518160010160006101000a81548161ffff021916908360010b61ffff1602179055505050600260405180604001604052806040518060400160405280602081526020017f576861742069732074686520706572666563742063756265206f662032373f208152508152602001600360010b815250908060018154018082558091505060019003906000526020600020906002020160009091909190915060008201518160000190816200042c91906200099d565b5060208201518160010160006101000a81548161ffff021916908360010b61ffff1602179055505050600260405180604001604052806040518060400160405280601e81526020017f536f6c76652033202b2036202a20282035202f203429202f2033202d203700008152508152602001600e60010b81525090806001815401808255809150506001900390600052602060002090600202016000909190919091506000820151816000019081620004e591906200099d565b5060208201518160010160006101000a81548161ffff021916908360010b61ffff1602179055505050600260405180604001604052806040518060400160405280601081526020017f536f6c7665203233202b2033202f2033000000000000000000000000000000008152508152602001601860010b815250908060018154018082558091505060019003906000526020600020906002020160009091909190915060008201518160000190816200059e91906200099d565b5060208201518160010160006101000a81548161ffff021916908360010b61ffff1602179055505050600260405180604001604052806040518060400160405280602081526020017f496620313d332c323d332c333d352c343d342c353d34205468656e2c20363d3f8152508152602001600360010b815250908060018154018082558091505060019003906000526020600020906002020160009091909190915060008201518160000190816200065791906200099d565b5060208201518160010160006101000a81548161ffff021916908360010b61ffff16021790555050506002604051806040016040528060405180606001604052806029815260200162001eb0602991398152602001600960010b81525090806001815401808255809150506001900390600052602060002090600202016000909190919091506000820151816000019081620006f491906200099d565b5060208201518160010160006101000a81548161ffff021916908360010b61ffff160217905550505062000a84565b600081519050919050565b7f4e487b7100000000000000000000000000000000000000000000000000000000600052604160045260246000fd5b7f4e487b7100000000000000000000000000000000000000000000000000000000600052602260045260246000fd5b60006002820490506001821680620007a557607f821691505b602082108103620007bb57620007ba6200075d565b5b50919050565b60008190508160005260206000209050919050565b60006020601f8301049050919050565b600082821b905092915050565b600060088302620008257fffffffffffffffffffffffffffffffffffffffffffffffffffffffffffffffff82620007e6565b620008318683620007e6565b95508019841693508086168417925050509392505050565b6000819050919050565b6000819050919050565b60006200087e62000878620008728462000849565b62000853565b62000849565b9050919050565b6000819050919050565b6200089a836200085d565b620008b2620008a98262000885565b848454620007f3565b825550505050565b600090565b620008c9620008ba565b620008d68184846200088f565b505050565b5b81811015620008fe57620008f2600082620008bf565b600181019050620008dc565b5050565b601f8211156200094d576200091781620007c1565b6200092284620007d6565b8101602085101562000932578190505b6200094a6200094185620007d6565b830182620008db565b50505b505050565b600082821c905092915050565b6000620009726000198460080262000952565b1980831691505092915050565b60006200098d83836200095f565b9150826002028217905092915050565b620009a88262000723565b67ffffffffffffffff811115620009c457620009c36200072e565b5b620009d082546200078c565b620009dd82828562000902565b600060209050601f83116001811462000a15576000841562000a00578287015190505b62000a0c85826200097f565b86555062000a7c565b601f19841662000a2586620007c1565b60005b8281101562000a4f5784890151825560018201915060208501945060208101905062000a28565b8683101562000a6f578489015162000a6b601f8916826200095f565b8355505b6001600288020188555050505b505050505050565b6113ab8062000a946000396000f3fe60806040526004361061007f5760003560e01c8063bd097e211161004e578063bd097e211461028b578063c9cd30a0146102a9578063f30c54e6146102d4578063fe7be5d914610311576101ca565b8063481c6a75146101cf5780636e3ccb39146101fa578063901db2c6146102235780639fe8b3ba1461024e576101ca565b366101ca5761271034146100c8576040517f08c379a00000000000000000000000000000000000000000000000000000000081526004016100bf90610e8a565b60405180910390fd5b60405180606001604052803373ffffffffffffffffffffffffffffffffffffffff168152602001600060ff168152602001600060ff16815250600160003373ffffffffffffffffffffffffffffffffffffffff1673ffffffffffffffffffffffffffffffffffffffff16815260200190815260200160002060008201518160000160006101000a81548173ffffffffffffffffffffffffffffffffffffffff021916908373ffffffffffffffffffffffffffffffffffffffff16021790555060208201518160000160146101000a81548160ff021916908360ff16021790555060408201518160000160156101000a81548160ff021916908360ff1602179055005b600080fd5b3480156101db57600080fd5b506101e461033c565b6040516101f19190610eeb565b60405180910390f35b34801561020657600080fd5b50610221600480360381019061021c9190610f44565b610360565b005b34801561022f57600080fd5b506102386105fb565b6040516102459190610ff0565b60405180910390f35b34801561025a57600080fd5b5061027560048036038101906102709190611048565b6107ec565b6040516102829190611084565b60405180910390f35b6102936108a3565b6040516102a09190610ff0565b60405180910390f35b3480156102b557600080fd5b506102be610997565b6040516102cb9190611084565b60405180910390f35b3480156102e057600080fd5b506102fb60048036038101906102f69190611048565b610a2e565b6040516103089190610eeb565b60405180910390f35b34801561031d57600080fd5b50610326610a6d565b60405161033391906110bb565b60405180910390f35b60008054906101000a900473ffffffffffffffffffffffffffffffffffffffff1681565b6001151561036d33610ac4565b1515146103af576040517f08c379a00000000000000000000000000000000000000000000000000000000081526004016103a690611148565b60405180910390fd5b600a600160003373ffffffffffffffffffffffffffffffffffffffff1673ffffffffffffffffffffffffffffffffffffffff16815260200190815260200160002060000160149054906101000a900460ff1660ff1610156105f8576000600160003373ffffffffffffffffffffffffffffffffffffffff1673ffffffffffffffffffffffffffffffffffffffff16815260200190815260200160002060000160149054906101000a900460ff16905060028160ff168154811061047557610474611168565b5b906000526020600020906002020160010160009054906101000a900460010b60010b8260010b0361051957600160003373ffffffffffffffffffffffffffffffffffffffff1673ffffffffffffffffffffffffffffffffffffffff168152602001908152602001600020600001601581819054906101000a900460ff16809291906104ff906111c6565b91906101000a81548160ff021916908360ff160217905550505b600160003373ffffffffffffffffffffffffffffffffffffffff1673ffffffffffffffffffffffffffffffffffffffff168152602001908152602001600020600001601481819054906101000a900460ff1680929190610578906111c6565b91906101000a81548160ff021916908360ff16021790555050600a600160003373ffffffffffffffffffffffffffffffffffffffff1673ffffffffffffffffffffffffffffffffffffffff16815260200190815260200160002060000160149054906101000a900460ff1660ff16106105f6576105f433610b6e565b505b505b50565b60606001151561060a33610ac4565b15151461064c576040517f08c379a000000000000000000000000000000000000000000000000000000000815260040161064390611148565b60405180910390fd5b600a600160003373ffffffffffffffffffffffffffffffffffffffff1673ffffffffffffffffffffffffffffffffffffffff16815260200190815260200160002060000160149054906101000a900460ff1660ff16106106e1576040517f08c379a00000000000000000000000000000000000000000000000000000000081526004016106d89061123b565b60405180910390fd5b6000600160003373ffffffffffffffffffffffffffffffffffffffff1673ffffffffffffffffffffffffffffffffffffffff16815260200190815260200160002060000160149054906101000a900460ff16905060028160ff168154811061074c5761074b611168565b5b906000526020600020906002020160000180546107689061128a565b80601f01602080910402602001604051908101604052809291908181526020018280546107949061128a565b80156107e15780601f106107b6576101008083540402835291602001916107e1565b820191906000526020600020905b8154815290600101906020018083116107c457829003601f168201915b505050505091505090565b60008060009054906101000a900473ffffffffffffffffffffffffffffffffffffffff1673ffffffffffffffffffffffffffffffffffffffff163373ffffffffffffffffffffffffffffffffffffffff161461087d576040517f08c379a00000000000000000000000000000000000000000000000000000000081526004016108749061132d565b60405180910390fd5b6004828154811061089157610890611168565b5b90600052602060002001549050919050565b606060008054906101000a900473ffffffffffffffffffffffffffffffffffffffff1673ffffffffffffffffffffffffffffffffffffffff163373ffffffffffffffffffffffffffffffffffffffff1614610933576040517f08c379a000000000000000000000000000000000000000000000000000000000815260040161092a9061132d565b60405180910390fd5b60043490806001815401808255809150506001900390600052602060002001600090919091909150556040518060400160405280601281526020017f46756e64696e67205375636365737366756c0000000000000000000000000000815250905090565b60008060009054906101000a900473ffffffffffffffffffffffffffffffffffffffff1673ffffffffffffffffffffffffffffffffffffffff163373ffffffffffffffffffffffffffffffffffffffff1614610a28576040517f08c379a0000000000000000000000000000000000000000000000000000000008152600401610a1f9061132d565b60405180910390fd5b47905090565b60038181548110610a3e57600080fd5b906000526020600020016000915054906101000a900473ffffffffffffffffffffffffffffffffffffffff1681565b6000600160003373ffffffffffffffffffffffffffffffffffffffff1673ffffffffffffffffffffffffffffffffffffffff16815260200190815260200160002060000160159054906101000a900460ff16905090565b6000600160008373ffffffffffffffffffffffffffffffffffffffff1673ffffffffffffffffffffffffffffffffffffffff16815260200190815260200160002060000160009054906101000a900473ffffffffffffffffffffffffffffffffffffffff1673ffffffffffffffffffffffffffffffffffffffff168273ffffffffffffffffffffffffffffffffffffffff1603610b645760019050610b69565b600090505b919050565b6060600a600160008473ffffffffffffffffffffffffffffffffffffffff1673ffffffffffffffffffffffffffffffffffffffff16815260200190815260200160002060000160159054906101000a900460ff1660ff1603610d32578173ffffffffffffffffffffffffffffffffffffffff166108fc66038d7ea4c680009081150290604051600060405180830381858888f19350505050158015610c17573d6000803e3d6000fd5b506003829080600181540180825580915050600190039060005260206000200160009091909190916101000a81548173ffffffffffffffffffffffffffffffffffffffff021916908373ffffffffffffffffffffffffffffffffffffffff160217905550600160008373ffffffffffffffffffffffffffffffffffffffff1673ffffffffffffffffffffffffffffffffffffffff168152602001908152602001600020600080820160006101000a81549073ffffffffffffffffffffffffffffffffffffffff02191690556000820160146101000a81549060ff02191690556000820160156101000a81549060ff02191690555050600060405180606001604052806028815260200161134e60289139905080915050610e02565b600160008373ffffffffffffffffffffffffffffffffffffffff1673ffffffffffffffffffffffffffffffffffffffff168152602001908152602001600020600080820160006101000a81549073ffffffffffffffffffffffffffffffffffffffff02191690556000820160146101000a81549060ff02191690556000820160156101000a81549060ff0219169055505060006040518060400160405280601581526020017f426574746572204c75636b204e6578742054696d6500000000000000000000008152509050809150505b919050565b600082825260208201905092915050565b7f506c65617365207061792074686520726571756972656420707269636520746f60008201527f2070617274696369706174650000000000000000000000000000000000000000602082015250565b6000610e74602c83610e07565b9150610e7f82610e18565b604082019050919050565b60006020820190508181036000830152610ea381610e67565b9050919050565b600073ffffffffffffffffffffffffffffffffffffffff82169050919050565b6000610ed582610eaa565b9050919050565b610ee581610eca565b82525050565b6000602082019050610f006000830184610edc565b92915050565b600080fd5b60008160010b9050919050565b610f2181610f0b565b8114610f2c57600080fd5b50565b600081359050610f3e81610f18565b92915050565b600060208284031215610f5a57610f59610f06565b5b6000610f6884828501610f2f565b91505092915050565b600081519050919050565b60005b83811015610f9a578082015181840152602081019050610f7f565b60008484015250505050565b6000601f19601f8301169050919050565b6000610fc282610f71565b610fcc8185610e07565b9350610fdc818560208601610f7c565b610fe581610fa6565b840191505092915050565b6000602082019050818103600083015261100a8184610fb7565b905092915050565b6000819050919050565b61102581611012565b811461103057600080fd5b50565b6000813590506110428161101c565b92915050565b60006020828403121561105e5761105d610f06565b5b600061106c84828501611033565b91505092915050565b61107e81611012565b82525050565b60006020820190506110996000830184611075565b92915050565b600060ff82169050919050565b6110b58161109f565b82525050565b60006020820190506110d060008301846110ac565b92915050565b7f596f7520646f206e6f74206861766520746865207469636b657420746f20706160008201527f72746963697061746520696e20746865207175697a0000000000000000000000602082015250565b6000611132603583610e07565b915061113d826110d6565b604082019050919050565b6000602082019050818103600083015261116181611125565b9050919050565b7f4e487b7100000000000000000000000000000000000000000000000000000000600052603260045260246000fd5b7f4e487b7100000000000000000000000000000000000000000000000000000000600052601160045260246000fd5b60006111d18261109f565b915060ff82036111e4576111e3611197565b5b600182019050919050565b7f596f75206861766520636f6d706c6574656420746865207175697a0000000000600082015250565b6000611225601b83610e07565b9150611230826111ef565b602082019050919050565b6000602082019050818103600083015261125481611218565b9050919050565b7f4e487b7100000000000000000000000000000000000000000000000000000000600052602260045260246000fd5b600060028204905060018216806112a257607f821691505b6020821081036112b5576112b461125b565b5b50919050565b7f4f6e6c79206d616e616765722063616e20706572666f726d207468697320616360008201527f74696f6e00000000000000000000000000000000000000000000000000000000602082015250565b6000611317602483610e07565b9150611322826112bb565b604082019050919050565b600060208201905081810360008301526113468161130a565b905091905056fe436f6e67726174756c6174696f6e7320796f75206861766520776f6e20302e303031206574686572a2646970667358221220258c5900edb65810ad7b938fb72a80635481338d8863b43947f6004c11357b3164736f6c634300081100335768617420697320746865204e657874205072696d65204e756d62657220616674657220373f486f77204d616e792059656172732061726520746865726520696e2061204465636164653f486f77204d616e792053696465732061726520746865726520696e20612044656361676f6e3f5768696368206e756d626572206973206571756976616c656e7420746f20335e2834292f335e283229",
  "immutableReferences": {},
  "source": "//SPDX-License-Identifier: MIT\r\n\r\npragma solidity ^0.8.8;\r\n\r\ncontract Quiz{\r\n    //creator of quiz game\r\n    address public manager;\r\n\r\n    //participants of quiz game\r\n    struct Participant{\r\n        address payable Id;\r\n        uint8 qnaIndex;\r\n        uint8 points;\r\n    }\r\n    mapping(address => Participant) internal participants;\r\n  \r\n\r\n    //Questions and Answers Bank\r\n    struct QnA{\r\n        string question;\r\n        int16 answer;\r\n    }\r\n    QnA[] internal qnaBank;\r\n\r\n    //keeps track of address who won the quiz in the past\r\n    address[] public quizWinnersHistory;\r\n\r\n    //keeps track of the funding given to the contract by the manager\r\n    uint256[] private fundHistory;\r\n\r\n    //custom modifiers\r\n    modifier onlyOwner(){\r\n        require(msg.sender == manager,\"Only manager can perform this action\");\r\n        _;\r\n    }\r\n    modifier onlyParticipants(){\r\n        require(checkEligibility(payable(msg.sender)) == true,\"You do not have the ticket to participate in the quiz\");\r\n        _;\r\n    }\r\n\r\n    //Functions starts from here\r\n    constructor(){\r\n        manager = msg.sender;\r\n        qnaBank.push(QnA({question:\"121 Divided by 11 is __\",answer:11}));\r\n        qnaBank.push(QnA({question:\"What is the Next Prime Number after 7?\",answer:11}));\r\n        qnaBank.push(QnA({question:\"How Many Years are there in a Decade?\",answer:10}));\r\n        qnaBank.push(QnA({question:\"How Many Months Make a Century?\",answer:1200}));\r\n        qnaBank.push(QnA({question:\"How Many Sides are there in a Decagon?\",answer:10}));\r\n        qnaBank.push(QnA({question:\"What is the perfect cube of 27? \",answer:3}));\r\n        qnaBank.push(QnA({question:\"Solve 3 + 6 * ( 5 / 4) / 3 - 7\",answer:14}));\r\n        qnaBank.push(QnA({question:\"Solve 23 + 3 / 3\",answer:24}));\r\n        qnaBank.push(QnA({question:\"If 1=3,2=3,3=5,4=4,5=4 Then, 6=?\",answer:3}));\r\n        qnaBank.push(QnA({question:\"Which number is equivalent to 3^(4)/3^(2)\",answer:9}));\r\n    }\r\n\r\n    //function for participants to buy quiz ticket\r\n    receive() external payable {\r\n        require(msg.value == 10000 wei,\"Please pay the required price to participate\");\r\n        participants[msg.sender] = (Participant({Id: payable(msg.sender),qnaIndex: 0,points: 0}));\r\n    }\r\n\r\n    //function for the manager to check contract balance\r\n    function contractBal() public view onlyOwner returns(uint256){\r\n        return address(this).balance;\r\n    }\r\n\r\n    //function for the manager to fund the contract\r\n    function fundContract() public payable onlyOwner returns(string memory){\r\n        fundHistory.push(msg.value);\r\n        return \"Funding Successful\";\r\n    }\r\n\r\n    //function for the manager to check funding history of the contract\r\n    function fundingHistory(uint256 index) public view onlyOwner returns(uint256){\r\n        return fundHistory[index];\r\n    }\r\n\r\n    //function to check if the caller is eligible to play the quiz or not\r\n    function checkEligibility(address payable caller) internal view returns(bool){\r\n        if(caller == participants[caller].Id){\r\n            return true;\r\n        }\r\n        return false;\r\n    }\r\n\r\n    //function to reward the player who scores required score\r\n    function reward(address payable caller) internal returns(string memory){\r\n        //if the participant wins, reward them, add them to winners history and delete their entry\r\n        if(participants[caller].points == 10){\r\n            caller.transfer(1000000 gwei);\r\n            quizWinnersHistory.push(caller);\r\n            delete(participants[caller]);\r\n            string memory greet = \"Congratulations you have won 0.001 ether\";\r\n            return greet;\r\n        }\r\n        //if the participant loses, delete their entry\r\n        delete(participants[caller]);\r\n        string memory console = \"Better Luck Next Time\";\r\n        return console;\r\n    }\r\n\r\n    //function that throws the quiz questions\r\n    function quizMe() public view onlyParticipants returns(string memory _question){\r\n        require(participants[msg.sender].qnaIndex < 10,\"You have completed the quiz\");\r\n        uint8 index = participants[msg.sender].qnaIndex;\r\n        return qnaBank[index].question;\r\n    }\r\n\r\n    //function to submit the quiz answers and check for their correctness\r\n    function submitAnswer(int16 _answer) public onlyParticipants{\r\n        if(participants[msg.sender].qnaIndex < 10){\r\n            uint8 index = participants[msg.sender].qnaIndex;\r\n            if(_answer == qnaBank[index].answer){\r\n                participants[msg.sender].points++;\r\n            }\r\n            participants[msg.sender].qnaIndex++;\r\n\r\n            if(participants[msg.sender].qnaIndex >= 10){\r\n                reward(payable(msg.sender));\r\n            }\r\n        }\r\n    }\r\n\r\n    //function to view current points earned\r\n    function viewScore() public view returns(uint8){\r\n        return participants[msg.sender].points;\r\n    }\r\n\r\n}",
  "sourcePath": "C:\\Users\\sanjo\\Desktop\\Web3\\Web3 Work\\Web3\\Project 4 - Quiz Game\\contracts\\Quiz.sol",
  "compiler": {
    "name": "solc",
    "version": "0.8.17+commit.8df45f5f.Emscripten.clang"
  },
  "schemaVersion": "3.4.11",
  "updatedAt": "2023-01-07T14:52:29.585Z",
  "networkType": "ethereum",
  "devdoc": {
    "kind": "dev",
    "methods": {},
    "version": 1
  },
  "userdoc": {
    "kind": "user",
    "methods": {},
    "version": 1
  }
}